:100000000C9499050C94C1050C94C1050C94C10580
:100010000C94C1050C94C1050C94C1050C94C10548
:100020000C94C1050C94C1050C94F80A0C94670B50
:100030000C94C1050C94C1050C94C1050C94C10528
:100040000C94C1050C94C1050C94C1050C94C10518
:100050000C94C1050C94C1050C94C1050C94AE0A16
:100060000C94C1050C94C1050C94C1050C94C105F8
:100070000C94C1050C94C1050C94C1050C94C105E8
:100080000C94C1050C94C1050C94C1050C94C105D8
:100090000C94C1050C94C1050C94C1050C94C105C8
:1000A0000C94C1050C94C1050C94C105000000001E
:1000B000003E5B4F5B3E3E6B4F6B3E1C3E7C3E1CEE
:1000C000183C7E3C181C577D571C1C5E7F5E1C0034
:1000D000183C1800FFE7C3E7FF0018241800FFE7EB
:1000E000DBE7FF30483A060E2629792926407F05AE
:1000F0000507407F05253F5A3CE73C5A7F3E1C1CC4
:1001000008081C1C3E7F14227F22145F5F005F5F83
:1001100006097F017F006689956A6060606060946F
:10012000A2FFA29408047E040810207E2010080874
:100130002A1C08081C2A08081E101010100C1E0C7F
:100140001E0C30383E3830060E3E0E060000000011
:100150000000005F00000007000700147F147F14F8
:10016000242A7F2A1223130864623649562050003D
:1001700008070300001C2241000041221C002A1C29
:100180007F1C2A08083E0808008070300008080814
:100190000808000060600020100804023E51494534
:1001A0003E00427F400072494949462141494D3352
:1001B0001814127F1027454545393C4A49493141B9
:1001C000211109073649494936464949291E000087
:1001D00014000000403400000008142241141414DC
:1001E0001414004122140802015909063E415D59C8
:1001F0004E7C1211127C7F494949363E41414122D1
:100200007F4141413E7F494949417F090909013EFA
:10021000414151737F0808087F00417F4100204021
:10022000413F017F081422417F404040407F021C33
:10023000027F7F0408107F3E4141413E7F0909094A
:10024000063E4151215E7F09192946264949493216
:1002500003017F01033F4040403F1F2040201F3FDC
:100260004038403F63140814630304780403615961
:10027000494D43007F4141410204081020004141A3
:10028000417F04020102044040404040000307084F
:100290000020545478407F2844443838444444284B
:1002A000384444287F385454541800087E090218F2
:1002B000A4A49C787F0804047800447D400020407A
:1002C000403D007F1028440000417F40007C0478BE
:1002D00004787C080404783844444438FC18242406
:1002E0001818242418FC7C08040408485454542486
:1002F00004043F44243C4040207C1C2040201C3C03
:100300004030403C44281028444C9090907C4464F9
:10031000544C44000836410000007700000041368C
:10032000080002010204023C2623263C1EA1A16112
:10033000123A4040207A3854545559215555794144
:100340002154547841215554784020545579400C1B
:100350001E527212395555555939545454593955FC
:100360005454580000457C410002457D420001453F
:100370007C40F0292429F0F0282528F07C545545AC
:10038000002054547C547C0A097F4932494949323F
:100390003248484832324A4848303A4141217A3A54
:1003A00042402078009DA0A07D39444444393D401E
:1003B00040403D3C24FF2424487E4943662B2FFCCB
:1003C0002F2BFF0929F620C0887E09032054547979
:1003D000410000447D413048484A32384040227A4A
:1003E000007A0A0A727D0D19317D2629292F2826C7
:1003F0002929292630484D402038080808080808CF
:100400000808382F10C8ACBA2F102834FA00007B27
:10041000000008142A142222142A1408950022002D
:1004200095AA005500AAAA55AA55AA000000FF00E7
:10043000101010FF00141414FF001010FF00FF1024
:1004400010F010F0141414FC001414F700FF000056
:10045000FF00FF1414F404FC141417101F10101FD5
:10046000101F1414141F00101010F0000000001FC3
:10047000101010101F10101010F010000000FF10CE
:100480001010101010101010FF10000000FF1400CA
:1004900000FF00FF00001F10170000FC04F41414FC
:1004A0001710171414F404F40000FF00F7141414C8
:1004B00014141414F700F7141414171410101F1048
:1004C0001F141414F4141010F010F000001F101F6B
:1004D0000000001F14000000FC140000F010F010D9
:1004E00010FF10FF141414FF141010101F00000050
:1004F00000F010FFFFFFFFFFF0F0F0F0F0FFFFFF54
:100500000000000000FFFF0F0F0F0F0F38444438AA
:10051000447C2A2A3E147E02020606027E027E02E5
:1005200063554941633844443C04407E201E200604
:10053000027E020299A5E7A5991C2A492A1C4C7241
:1005400001724C304A4D4D303048784830BC625AC8
:10055000463D3E494949007E0101017E2A2A2A2A58
:100560002A44445F444440514A444040444A514034
:100570000000FF0103E080FF000008086B6B0836F5
:1005800012362436060F090F060000181800000066
:100590001010003040FF0101001F01011E00191D55
:1005A0001712003C3C3C3C0000000000080B00021D
:1005B00002020000090400000102020000052400FC
:1005C000100105240101010424020605240600018E
:1005D0000705810310004009040100020A00000021
:1005E00007050202400000070583024000000403E3
:1005F000090412010002EF0201404123368000018C
:100600000102030141726475696E6F204C4C430016
:1006100041726475626F7900F0F89C8E8783878ED3
:100620009CF8F00000FEFF0303030303070EFCF831
:100630000000FEFF0303030303070EFCF80000FFA6
:10064000FF00000000000000FFFF0000FEFF8383AA
:10065000838383C7EE7C380000F8FC0E0703030396
:10066000070EFCF800003F7FE0C08080C0E07F3FC5
:10067000FFFF01010101010101FFFF0000FFFF0C6D
:100680000C0C0C1C3E77E3C100007FFFC0C0C0C053
:10069000C0E0703F1F00001F3F70E0C0C0C0E070AE
:1006A0003F1F00007FFFC1C1C1C1C1E3773E1C00F5
:1006B000001F3F70E0C0C0C0E0703F1F000000009E
:1006C0000001FFFF01000000D5F08D14A1C881CF0B
:1006D000D9F1AF20005072657373204120746F20F0
:1006E00072657475726E20746F204D656E7500466C
:1006F000696E616C2053636F72653A203132333416
:100700003500472041204D20452020204F205620F5
:10071000452052005072657373204220746F20721E
:10072000657475726E2E2E2E00566F6C756D653A5F
:10073000204F4E0053455454494E4753001010016A
:10074000020408102040808040201008040201802C
:10075000402010080402010102040810204080100B
:100760001000000000000000808000000000000079
:100770000000000000000000010100000000000077
:1007800000000000000000C04040C0000000000069
:10079000000000000000000302020300000000004F
:1007A000000000000000C020202020C00000000049
:1007B0000000000000000304040404030000000023
:1007C0000000000000C0301010101030C000000009
:1007D0000000000000030C080808080C03000000DB
:1007E00000000000C02010080808081020C0000009
:1007F000000000000708102020202010080700003B
:10080000000000E010080404040404040810E000E0
:1008100000000007081020202020202010080700DA
:100820000000F0080402020202020202020408F0C0
:1008300000000F1020404040404040404020100F3A
:1008400000000206040C080000070010180C060245
:10085000000141211111180000F00000193161411F
:100860000110100000000000000080800000000067
:100870000000000000000000000001010000000076
:10088000000000000000000000C04040C000000068
:10089000000000000000000000030202030000004E
:1008A0000000000000000000C020202020C0000048
:1008B0000000000000000000030404040403000022
:1008C00000000000000000C0301010101030C00008
:1008D00000000000000000030C080808080C0300DA
:1008E000000000000000C02010080808081020C008
:1008F000000000000000070810202020201008073A
:100900000000000000E010080404040404040810BF
:10091000E000000000070810202020202020100800
:1009200007000000F00804020202020202020204B0
:1009300008F000000F102040404040404040402060
:10094000100F00000206040C080000070010180C2D
:100950000602000141211111180000F000001931B8
:100960006141011010E030180C0603F19191916380
:10097000060C1830E003060C18306047444444630A
:1009800030180C06031010E0F0F8FCFEFFFFFFFF2C
:10099000FFFFFEFCF8F0E003070F1F3F7F7F7F7F24
:1009A0007F7F3F1F0F07031010E030180C06E33164
:1009B000111131E3060C1830E003060C18306741C2
:1009C0004141416730180C06031010000000000080
:1009D00000FCFCFCFC000000000000000000040C17
:1009E0001C3F7F7F3F1C0C04000000101000000023
:1009F000000000FC0404FC000000000000000000F7
:100A0000040C1427404027140C04000000101000B0
:100A10000000203038FCFEFEFC38302000000000D2
:100A200000000000003F3F3F3F00000000000010BA
:100A300010000000203028E40202E42830200000EA
:100A4000000000000000003F20203F0000000000E8
:100A50000010100000C0C0C0C0C0C0C0C0F8F0E0AE
:100A6000C08000000003030303030303031F0F07F9
:100A700003010010100000C040404040404040785A
:100A80001020408000000003020202020202021E47
:100A9000080402010010100080C0E0F0F8C0C0C0DF
:100AA000C0C0C0C0C00000000103070F1F03030344
:100AB000030303030300001010008040201078405F
:100AC000404040404040C0000000010204081E02B7
:100AD0000202020202020300003100320033004928
:100AE0006E7465726D697373696F6E005155495408
:100AF0000053455454494E475300535441525420D7
:100B000047414D45004D41494E204D454E55005001
:100B10005245535320412F4220544F2053544152A9
:100B20005400454C454E4127532047414D45000058
:100B3000CC0D11241FBECFEFDAE0DEBFCDBF11E038
:100B4000A0E0B1E0ECE1F3E302C005900D92A6361F
:100B5000B107D9F725E0A6E6B1E001C01D92AF3F8D
:100B6000B207E1F715E0C9E9D5E004C02197FE011D
:100B70000E94A116C839D107C9F70E94E90D0C944B
:100B80008C190C940000EBEAF1E0A0E0B8E00080E2
:100B90000EBC8111012C1197A0FDFDCF0192B9F778
:100BA0000DB40895FC018091AA01882311F13FB78B
:100BB000F89482E08093E9002091F200822F90E087
:100BC0001816190614F481E090E0882339F028986B
:100BD00044E64093A9014091F1004083222339F07B
:100BE0002091F200211103C02BE62093E8003FBFC3
:100BF00008958FEF9FEF08952FB7F89483E08093C7
:100C0000E9009091E800892F807295FF04C09091CF
:100C1000F20080E4891B2FBF08958091A10181110A
:100C20000DC082E080939D0184E080939E0110922C
:100C3000A00110929F0181E08093A1018DE991E0D4
:100C400008953FB7F8948091990190919A01A091ED
:100C50009B01B0919C0126B5A89B05C02F3F19F0C0
:100C60000196A11DB11D3FBFBA2FA92F982F88272C
:100C7000BC01CD01620F711D811D911D42E0660F07
:100C8000771F881F991F4A95D1F708958F929F92D9
:100C9000AF92BF92CF92DF92EF92FF926B017C01F5
:100CA0000E9421064B015C01C114D104E104F1044E
:100CB000B9F00E942106681979098A099B09683EE2
:100CC00073408105910580F321E0C21AD108E10843
:100CD000F10888EE880E83E0981EA11CB11CE4CFB9
:100CE000FF90EF90DF90CF90BF90AF909F908F904C
:100CF00008952FB7F89460919501709196018091B5
:100D00009701909198012FBF0895409168015091EB
:100D10006901209166013091670142175307B4F4CD
:100D20009091E8009570E1F39091E80092FD19C070
:100D30008093F100809168019091690101968F7311
:100D40009927892B19F48EEF8093E8008091680130
:100D5000909169010196909369018093680181E007
:100D6000089580E00895DF92EF92FF920F931F9312
:100D7000CF93DF93D82E8A01EB017B01E40EF51EA1
:100D8000CE15DF0559F0D7FE12C0FE0184910E94F6
:100D9000850621968111F4CF0FEF1FEFC801DF9177
:100DA000CF911F910F91FF90EF90DF900895888170
:100DB000EECF0F931F93CF93DF931F92CDB7DEB784
:100DC00082E0898342E450E06CEA75E080E80E94AA
:100DD000B3060E940D06DC0112960D911C910115BF
:100DE000110589F0D801ED91FC910280F381E02D8D
:100DF000BE016F5F7F4FC801099597FD04C0F801E0
:100E000000851185ECCF89810F90DF91CF911F91E3
:100E10000F910895615030F02091F100FC01208382
:100E20000196F8CF289884E68093A9010895AF929F
:100E3000BF92CF92DF92EF92FF920F931F93CF93C7
:100E4000DF936C017B018B01040F151FEB015E0129
:100E5000AE18BF08C017D10759F06991D601ED91BE
:100E6000FC910190F081E02DC6010995892B79F75D
:100E7000C501DF91CF911F910F91FF90EF90DF900F
:100E8000CF90BF90AF9008958F929F92AF92BF92F4
:100E9000CF92DF92EF92FF920F931F93CF93DF9346
:100EA0006C017B018A0180910B01882309F45CC0ED
:100EB0008091AA01882309F457C080916C0180FFBA
:100EC00005C08091E00082608093E000E801B12CD1
:100ED0008AEFA82E93E0892E2AE3922E209711F410
:100EE000BB20D9F10E94FC0581110AC0AA94AA2056
:100EF000D9F161E070E080E090E00E944606EECF1C
:100F00008C171D0611F00CF08C2F9FB7F89480926F
:100F1000E9002091E80025FD02C09FBFDFCF282F08
:100F200030E0C21BD30BF701815020F04191409378
:100F3000F100FACFE20EF31EBB2021F09092E80000
:100F4000B12CEBCF8091E80085FDE7CF9092E800CF
:100F5000BB24B394209709F3F3CF5D9884E6809384
:100F60006B01101611063CF081E090E0F6019383CE
:100F7000828310E000E0C801DF91CF911F910F91B3
:100F8000FF90EF90DF90CF90BF90AF909F908F90A9
:100F90000895CF93DF931F92CDB7DEB76983DC014D
:100FA000ED91FC910280F381E02D41E050E0BE0123
:100FB0006F5F7F4F09950F90DF91CF91089583E088
:100FC0008093E9008091F200882319F08AE38093EE
:100FD000E80008950E94FC0590E00895CF93DF9308
:100FE0001F92CDB7DEB7FC018485958597FD08C0BB
:100FF0002FEF3FEF358724870F90DF91CF91089532
:10100000CE0101960E94D205019719F4898190E0E2
:10101000F3CF8FEF9FEFF0CF0F931F93CF93DF931B
:101020001F92CDB7DEB78C01FC018485958597FFB3
:101030000BC0CE0101960E94D205019771F48981FF
:1010400090E0F80195878487F801848595850F9055
:10105000DF91CF911F910F9108958FEF9FEFF1CF07
:10106000FC018485958597FD0BC09FB7F89482E0BD
:101070008093E9008091F2009FBF90E0019608956F
:101080009FB7F89482E08093E9008091F2009FBFBF
:1010900090E008954F925F927F928F929F92AF92CD
:1010A000BF92CF92DF92EF92FF920F931F93CF9355
:1010B000DF93DC01E901FA01B490319634914E5F7F
:1010C0005F4FCB2CD12C011102C0EE2029F1E1E0C1
:1010D000F0E0932F977011F4F0E0E0E0832F869515
:1010E000869586958E0F9F2F911D8C9DF0018D9D6D
:1010F000F00D9C9DF00D1124209739F0EE9EC0015B
:10110000EF9E900D1124C80FD91F0E9FC0010F9F95
:10111000900D1124480F591F86010A0F1B1F10162E
:1011200011060CF0ABC0A038B1050CF0A7C0CB0184
:10113000830F911D181619060CF0A0C060347105BC
:101140000CF09CC04115510509F498C0F62FF770BA
:101150008F2ECB0177FD079623E0959587952A95ED
:10116000E1F7F82F77FF04C0882011F0FFEFF80FA8
:10117000662777276A1B7B0BB7FD02C070E060E033
:1011800080E8982E9A1A003811050CF49B2C961AB8
:101190000F2F0F2E000C110BF02EF094FF3F0CF0D0
:1011A000F12C91E0832F877009F490E03695369505
:1011B0003695930F090F111D0930110514F098E0B1
:1011C0009F1B7F2C7F0E272D30E8230380011124E5
:1011D000A00FB11FA60FB71FBF9C600D711D11247A
:1011E000460F571F082D082C000C110B9E01260FCF
:1011F000371F9F0F971509F441C0ED01C555DE4F0C
:10120000F12CE12CE91490F5F901EE0DFF1D64912C
:1012100070E0002E02C0660F771F0A94E2F7609517
:101220007095FA01EE0DFF1DE491F0E02F01002E04
:1012300002C0440C551C0A94E2F777FC04C0888174
:10124000862384298883882061F086E087154CF006
:101250005E01E0E8AE0EB11CF5018081872385298F
:101260008083FFEFEF1AFF0A2196CCCF73944C0DC9
:101270005D1D2C0D3D1DA058BF4FBCCFDF91CF9100
:101280001F910F91FF90EF90DF90CF90BF90AF90A4
:101290009F908F907F905F904F9008952D9A089522
:1012A000BC0190E080E00C9446068FB18095807F71
:1012B000669B88601C9B84600895AF92BF92CF921A
:1012C000DF92EF92FF920F931F93CF93DF936D30D6
:1012D00079F0C0919001D09191016A30B1F41092EF
:1012E0008F0110928E012896D0939101C0939001A6
:1012F00081E090E0DF91CF911F910F91FF90EF90EF
:10130000DF90CF90BF90AF90089540918E015091A3
:101310008F0185E0689FF0011124E455FF4F9A0189
:10132000C12C80E1E82EA5E070E0CA1621F0CF01C3
:1013300001967491FC0110E000E0B72FB170DB2E34
:1013400020383105D0F4CE01800F911F80349105F3
:10135000A0F461E081FD64E080FD660F82FD62958E
:10136000887FE89ED0011124A20FF62EA555BE4F0E
:101370008C91DD20A9F0862B8C9376950F5F1F4F03
:1013800008301105D1F6C3942F5F3F4F86E0C81295
:10139000CACF4A5F5F4F50938F0140938E01A8CF11
:1013A000F0948F21E9CF0F931F93CF93DF938C019C
:1013B000D0E0C0E0F801EC0FFD1F6491662341F01E
:1013C0008BEF95E00E945D09892B11F02196F2CFF9
:1013D000CE01DF91CF911F910F91089590918C01D3
:1013E000982329F490918D01982381E009F480E0FD
:1013F000089580E00C94C305EF920F93823091051D
:1014000089F138F40097B1F0019709F10F91EF904D
:10141000089584309105D1F180F10597B9F7E12C59
:1014200000E027E839E045E859E06EE170E08AE540
:1014300090E00AC0E12C00E027E93AE045E95AE0F3
:101440006EE170E08EE190E00E944A08DFCFE12C6F
:1014500000E023E53AE041E55AE06EE170E082E326
:1014600090E0F2CFE12C00E02FE03AE04DE05AE0CE
:1014700064E170E088E290E0E7CFE12C00E02BEC43
:1014800039E049EC59E068E270E0F4CFE12C00E08B
:1014900027E839E045E859E06EE170E086E490E045
:1014A000D3CFEDE0F1E0A9E1B1E08D919C911197EE
:1014B0009183808312968D919C9193838283158270
:1014C00014820895E9E1F1E08FEF9FEF918380832B
:1014D0009383828381E080931D010895809186012A
:1014E000909187010A969093870180938601E3E1AA
:1014F000F1E0A9E1B1E08D919C91119791838083F6
:1015000012968D919C9193838283158214820C9400
:10151000620AE9E1F1E091838083138212821092E2
:101520001D0180917601909177010196909377014A
:10153000809376010895089590E080E00895FC017D
:1015400001900020E9F73197AF01481B590BBC010E
:101550008BEF95E00C9417070C9400161F920F92D6
:101560000FB60F9211242F933F938F939F93AF93B6
:10157000BF938091950190919601A0919701B091B0
:1015800098013091940123E0230F2D3758F50196EF
:10159000A11DB11D20939401809395019093960114
:1015A000A0939701B09398018091990190919A012D
:1015B000A0919B01B0919C010196A11DB11D80934A
:1015C000990190939A01A0939B01B0939C01BF91C4
:1015D000AF919F918F913F912F910F900FBE0F90E0
:1015E0001F90189526E8230F0296A11DB11DD2CF9A
:1015F0001F920F920FB60F9211248F939F93809199
:10160000E1009091E100937F9093E10083FF0FC090
:101610001092E90091E09093EB001092EC0092E3BD
:101620009093ED001092AA0198E09093F00082FF51
:1016300022C093E09093E9009091F200992319F071
:101640009AE39093E80090916B01992341F0909177
:101650006B01915090936B01911101C05D9A909133
:10166000A901992341F09091A90191509093A9016A
:10167000911101C0289A84FF18C08091E2008E7EEB
:1016800081608093E2008091E1008F7E8093E10091
:1016900080916C018E7E806180936C019F918F910F
:1016A0000F900FBE0F901F90189580FFF7CF80917D
:1016B000E2008E7E80618093E2008091E1008E7E68
:1016C0008093E10080916C018E7E8160E5CF1F9256
:1016D0000F920FB60F921124CF92DF92EF92FF92EA
:1016E0000F931F932F933F934F935F936F937F932A
:1016F0008F939F93AF93BF93EF93FF93CF93DF931A
:10170000CDB7DEB76C97DEBFCDBF1092E9008091F8
:10171000E80083FF25C068E0CE0145960E940A07D5
:1017200082EF8093E8008D8987FF39C09091E800AF
:1017300090FFFCCF982F907609F034C19E894F8995
:10174000588D2F89F88C911131C0803861F58091C6
:101750006D018093F1001092F1008EEF8093E8000C
:101760006C960FB6F894DEBF0FBECDBFDF91CF9160
:10177000FF91EF91BF91AF919F918F917F916F9169
:101780005F914F913F912F911F910F91FF90EF909B
:10179000DF90CF900F900FBE0F901F9018959EEF87
:1017A0009093E800C7CF1092F100D5CF913059F453
:1017B0008111D3CF4130510581F680916D018D7F2C
:1017C00080936D01CACF933049F48111C6CF413067
:1017D000510519F680916D018260F2CF953041F488
:1017E0008091E80080FFFCCF20682093E300B5CF14
:1017F000963009F0A9C00B8D1C8D22E01092E900F3
:101800001092690110926801F2122EC010926701C5
:10181000109266010E94D9061F8299E09983FA828C
:1018200091E09E8390EA98879AEF998720916801CA
:1018300030916901275F3F4F3C832B838D8310924A
:10184000E9001092690110926801109367010093FA
:10185000660149E050E0BE016F5F7F4F80E00E946B
:10186000B3060E94D90679CF1093670100936601F1
:101870000E940D06DC0112960D911C9101151105B7
:1018800009F451C1D801ED91FC910480F581E02D5E
:10189000BE016B5E7F4FC8010995009709F03EC1FC
:1018A000F80100851185EACFF3E0FF120EC08F89A1
:1018B000882309F440C0823061F440E867E080E1A9
:1018C00096E00E94990D811148CF81E28093EB0050
:1018D00047CF813029F440E86BE084E096E0F1CF17
:1018E000833099F70E940D06DC011296ED90FC9072
:1018F0008E010F5F1F4F6801E114F10479F0D701E9
:10190000ED91FC910680F781E02DB801C7010995A2
:10191000080F111DF701E084F184EECFD8011C926D
:10192000F60101900020E9F73197BF016C197D099C
:1019300040E0C601C6CF6EEE75E0FB01449150E079
:1019400080E80E94B30609CF973009F4BECF9830E3
:1019500021F481E08093F10000CF993009F0FDCEB1
:10196000837009F0B2CFE8E2F1E081E031E096E384
:101970002191222371F08093E9003093EB00DF0185
:1019800011972C912093EC009093ED008F5F87309E
:1019900079F78EE78093EA001092EA008F898093AE
:1019A000AA01DBCE8B8D9C8D1092E900109269010B
:1019B000109268019093670180936601898D81116F
:1019C00092C08E899D89913A49F4813209F07DCF88
:1019D00047E050E064E071E080E0B3CF913209F07D
:1019E00074CF833269F48F89988DB0E0A0E0809342
:1019F000000190930101A0930201B0930301ADCEC9
:101A0000803269F48091E80082FFFCCF67E084E0D7
:101A100091E00E940A078BEF8093E8009ECE82320D
:101A200009F09BCE8F8980930B01EEEFFFE7859144
:101A300094918B3F9C4D51F1E0E0F8E080910401DE
:101A400090910501A0910601B0910701803B94405F
:101A5000A105B105F1F480910B0180FD1AC0EE3FA4
:101A60008AE0F80789F587E797E79183808380917B
:101A7000600080936A0188E19BE00FB6F894A89516
:101A8000809360000FBE9093600067CEEEEFFAE0A7
:101A9000D5CF808191818737974709F05ECEA89591
:101AA0008091600088618093600080916A018093DA
:101AB0006000EE3F2AE0F20789F08091FE0A9091E3
:101AC000FF0A9183808349CE80819181873798076F
:101AD00051F29093FF0A8093FE0AC5CF1092FF0A3D
:101AE0001092FE0A3ACE0E940D06DC0112960D916C
:101AF0001C910115110509F4E8CED801ED91FC9176
:101B00000190F081E02DBE016B5E7F4FC801099509
:101B1000811123CEF80100851185EBCF1816190627
:101B20000CF41BCED2CEF1E0FF12BECE62EF75E018
:101B300004CFEF92FF920F931F93CF93DF93F82E72
:101B4000192FE62E042F81E0860F880F0E9485064C
:101B500083E00E948506CF2DD12FEC0EFD2EF11CC7
:101B6000CE15DF05B9F007FF13C0FE0184910E9476
:101B70008506182F80E00E94850681232196811119
:101B8000EFCFDF91CF911F910F91FF90EF900895CC
:101B90008881EDCF81E0F5CFEBEAF5E01382128288
:101BA00088EE93E0A0E0B0E084839583A683B783BA
:101BB00082E391E0918380838FEF9FEF9587848705
:101BC000EBEFF5E01382128284E491E0918380834D
:101BD0000895CF93DF93CDB7DEB7A1970FB6F894F2
:101BE000DEBF0FBECDBF789484B5826084BD84B55E
:101BF000816084BD85B5826085BD85B5816085BD08
:101C000080916E00816080936E00109281008091BF
:101C10008100826080938100809181008160809347
:101C2000810080918000816080938000809191008C
:101C300082608093910080919100816080939100F7
:101C4000809190008160809390008091C1008460B9
:101C50008093C1008091C10082608093C100809117
:101C6000C10081608093C1008091C3008160809336
:101C7000C3008091C00082608093C0008091C20048
:101C800081608093C20080917A00846080937A00A2
:101C900080917A00826080937A0080917A008160DE
:101CA00080937A0080917A00806880937A00109205
:101CB000AA0110926D0110926C018091D700816091
:101CC0008093D70080EA8093D80089B5806189BD70
:101CD00089B5826089BD09B400FEFDCF61E070E086
:101CE00080E090E00E9446068091D8008F7C806161
:101CF0008093D8008091E000807F8093E000809105
:101D0000E1008E7E8093E1008DE08093E200559AA1
:101D1000209A81EC80937C0085B1806F85B984B175
:101D2000877E84B984B1876E84B95E9A5F988AB1E0
:101D3000806D8AB9769A6E9881B3806F81BB8998DD
:101D400080B38D7080BB80E58CBD81E08DBD85E06A
:101D500090E00E9450095F9A85E090E00E9450094F
:101D60005E985C98E8ECF6E084918EBD00000DB4BE
:101D700007FEFDCF319606E0E53DF007A9F75C9A36
:101D800081E88093640080916500816080936500A4
:101D90000E94F9090E94550987FF15C05C9885EAE1
:101DA0008EBD00000DB407FEFDCF5C9A2E982F98D3
:101DB0002D988091640080628093640081E083BFED
:101DC000889513BEFCCF0E94550982FF48C02D980C
:101DD0000E94550984788438E1F40E944E0988EC09
:101DE00090E00E9450092F9882E090E00E94001637
:101DF0008F3F29F06FEF82E090E00E94081684EF99
:101E000091E00E9450092F9A0E94550984788438E5
:101E1000D9F30E94550984718431E1F40E944E097E
:101E200088EC90E00E9450092E9882E090E00E9499
:101E30000016882329F060E082E090E00E940816F6
:101E400084EF91E00E9450092E9A0E9455098471F6
:101E50008431D9F388EC90E00E945009B4CF0E94FD
:101E60004E0982E090E00E94AC0A882309F44CC03D
:101E70003E9A3F9A81E090E00E94AC0A182F1470BD
:101E8000712E81FF0FC011112E9801EF1FEFB8E0E6
:101E9000EB2EF12C0E94550986FF39C02E9A2F9AFD
:101EA0000E944E0982E390E00E9450090E94550969
:101EB0008111F8CF81E280930C010E947906CB0159
:101EC0000E94F5158FEF9FEF9093B8058093B705AB
:101ED000E8EE8E2EE3E09E2EA12CB12C62E0462E81
:101EE000512C73E0672E712C0E947906D0907001FE
:101EF000DD2009F4DCC01092700180E090E0892BB5
:101F000099F30E940000EACF3E983F98B3CF772024
:101F100029F00430110511F42E9A2F9881E00E94C7
:101F2000C305980117FF04C022273327201B310B5C
:101F300027703327C80117FD0796A3E0959587956D
:101F4000AA95E1F717FF05C00197A701421B530BA4
:101F50009A01BC017695762F66277795679565552A
:101F60007E4FB0E0A0E02701421A530A8E3F5FEF98
:101F7000950709F44CC0E8E5EA9F5001EB9FB00CCF
:101F8000112450E040E0F501E85EF94F5F014B019C
:101F9000F0E88F0E911C8F3F9807C1F0F501E40F18
:101FA000F51F64906B01C40ED51EE62DF0E0022EE5
:101FB00002C0EE0FFF1F0A94E2F7F8A3EF8FF601BD
:101FC000F489F9A36F8C6F2AF601648A2115310513
:101FD000C1F0F501E40FF51F64906401C40ED51E35
:101FE000E62DF0E0042C02C0F595E7950A94E2F79F
:101FF000F8A3EF8FF601F489F9A36F8C6F2AF6012D
:10200000648A4F5F5F4F4835510509F0C4CF019690
:1020100060587F4F119709F047C00E94F9098FE07F
:1020200090E00E9450090F5F1F4F0931110509F020
:1020300031CF772011F02F9A2D9880E991E00E94FE
:1020400050090E944E0981E090E00E94AC0A80FF96
:1020500029CF8AE090E00E94AC0A9FEF980F9E3F44
:1020600008F020CF22E330E030938F0120938E01DF
:1020700028E330E030939101209390010BE010E0D1
:10208000682F8BEF95E00E945D09C8010E94AC0AA1
:102090000F5F1F4F0131110599F70E94F90988EE72
:1020A00093E00E945009FECEA1E0B0E05FCF8091A6
:1020B0007101F62FF81B8F2F90910C01F91748F43E
:1020C0008F5F891708F019CF81E083BF889513BE11
:1020D00014CF81E0809370016093710180916E0153
:1020E00090916F01019690936F0180936E018D2DF9
:1020F000EBEAF1E081118FEF0024819381938193CA
:1021000081930394D1F71092910110929001109253
:102110008F0110928E0180918D0180938C010E941D
:10212000550980938D0180919201909193018230A5
:10213000910509F406C158F4009709F440C00197CD
:1021400009F46EC080E591E00E949F0A66C0843069
:10215000910509F4B2C408F47CC1059799F783E2AC
:1021600090E090938F0180938E0184E190E09093B2
:1021700091018093900182E097E00E94D30988E268
:1021800090E090938F0180938E01909391018093C2
:1021900090018FEE96E00E94D3098AE090E0909340
:1021A0008F0180938E0182E390E090939101809360
:1021B000900185ED96E00E94D30988E01FC084E17C
:1021C00090E090938F0180938E0190939101809382
:1021D000900182E29BE00E94D3098AE090E0909314
:1021E0008F0180938E0188E290E09093910180931B
:1021F00090018FE09BE00E94D3098CE00E94EE09E1
:10220000882359F0EE24E394F12CF0929301E092AC
:10221000920110928B0110928A010E94F9096DCEF1
:1022200088E290E090938F0180938E0185E090E0AA
:10223000909391018093900185E09BE00E94D309E7
:10224000EBE2F2E091E8915031F08191DF011197DA
:1022500080688C93F8CF80E80E94EE09882361F0B3
:1022600080918A0190918B010296B3010E947916A8
:1022700090938B0180938A0180E10E94EE0988236C
:1022800061F080918A0190918B010196B3010E94C7
:10229000791690938B0180938A0139E1E32EF12C1A
:1022A00010E000E04DE2C42ED12CD0928F01C092FC
:1022B0008E01F0929101E092900180918A019091BB
:1022C0008B018017910771F58CE491E00E949F0AC1
:1022D00081EF9AE00130110539F08AEF9AE002307F
:1022E000110511F48CEE9AE00E94D3090F5F1F4F85
:1022F0002AE0E20EF11C03301105B9F68CE00E94D1
:10230000EE09882309F489CF80918A0190918B018D
:102310008130910579F048F0029709F07ECF85E091
:1023200090E00AC08EE491E0D1CF10939301009326
:10233000920173CF84E090E0909393018093920197
:102340006CCF8091880190918901892B51F40E9472
:102350007906A50194010E944816309389012093C3
:10236000880149E150E050938F0140938E0186E14E
:1023700090E090939101809390018FED9AE00E94FC
:10238000D3090E947906A50194010E944816809104
:10239000880190918901092E000CAA0BBB0B7901D1
:1023A0008A01E81AF90A0A0B1B0BD801C701813010
:1023B0009105A105B10571F1E0F082309105A1050B
:1023C000B105B9F10397A105B10509F026CF0E9427
:1023D000F015B2010E947916909322018093210199
:1023E000109289011092880170929301609292017B
:1023F00014CF00E410E010938F0100938E0140E2AF
:1024000050E050939101409390018DED9AE00E942D
:10241000D30903CF80E490E090938F0180938E01E5
:10242000E0E2F0E0F0939101E09390018BED9AE00F
:10243000EECF20E4E22EF12CF0928F01E0928E019B
:1024400000E210E0109391010093900189ED9AE071
:10245000DECF8AE0ECE5F1E0DE01559601900D92C9
:102460008A95E1F7809187018F93809186018F9300
:10247000CE0145969F938F931F9284E18F9341E005
:1024800050E04C0F5D1F5F934F930E94A716109270
:102490008F0110928E011092910110929001CE0145
:1024A00001960E949F0A0FB6F894DEBF0FBECDBF03
:1024B0008091210190912201009761F0019709F428
:1024C00006C24BE050E060E571E08BEF95E00E94C2
:1024D0001707A3CE809176019091770106975CF063
:1024E0000E94620A10927701109276015092930135
:1024F0004092920192CEC0907201D0907301E09010
:102500007401F0907501C114D104E104F10409F0E3
:10251000D2C00E947906A50194010E94481620931A
:102520007201309373014093740150937501E12C53
:1025300000E027E93AE047EB5AE06AE270E085E024
:1025400090E00E944A0823E53AE043E75AE06AE255
:1025500070E089E190E00E944A082FE03AE04FE203
:102560005AE06AE270E08DE290E00E944A082BECAB
:1025700039E04BEE59E06AE270E081E490E00E94BD
:102580004A0827E839E043E659E06AE270E085E569
:1025900090E00E944A0827E839E047EA59E06AE2F9
:1025A00070E089E690E00E944A08809119019091BC
:1025B0001A0197FD18C0C0901B01D0901C01910119
:1025C0002E5F3F4FA101B6010E944A0892E0C90E5A
:1025D000D11CD0921C01C0921B01E0E4CE16D104A4
:1025E00014F00E94620A80E20E94EE09882309F436
:1025F000CBC0E12C00E027E93AE045E95AE06AE285
:1026000070E085E090E00E944A0880911901909165
:102610001A01059709F0D0C080911B0190911C010F
:1026200088970B9708F0C8C00E946E0A809113012A
:10263000909114018F3F9807E1F0C0901701D0905E
:1026400018016091150170911601EC2C0C2D21E6FA
:1026500037E041E658E00E944A080FEFC01AD00A5E
:1026600018E0C116D1040CF014C1D0921801C09228
:10267000170180910D0190910E018F3F980709F489
:10268000CCCD60910F0170911001E12C00E02FE39F
:1026900037E04DE357E00E944A0880911101909184
:1026A00012010196853091050CF002C19093120140
:1026B00080931101B2CD80911D01882309F437CF99
:1026C0000E947906A50194010E944816C216D306FD
:1026D000E406F50609F42BCF0E947906A5019401C2
:1026E0000E94481620937201309373014093740145
:1026F000509375010E94F01566E070E00E94791613
:102700008330910579F174F481309105C9F0029715
:1027100001F185E090E00E94890A95E9292E9AE06E
:10272000392E05CF8430910531F1059791F789E66F
:1027300090E00E94890AA7EA2A2EA9E03A2EF7CE55
:1027400089E190E00E94890A81E5282E8AE0382EEE
:10275000EECE8DE290E00E94890A0DE0202E0AE084
:10276000302EE5CE81E490E00E94890A19EC212EFA
:1027700019E0312EDCCE85E590E00E94890AB3E6AF
:102780002B2EB9E03B2ED3CE80E40E94EE098823A5
:10279000C1F0E12C00E023E53AE041E55AE06AE2CD
:1027A00070E089E190E00E944A08809119019091BF
:1027B0001A01499709F430CF0E94510A0E94620A17
:1027C00035CF80E80E94EE098823A1F0E12C00E0DB
:1027D0002FE03AE04DE05AE06AE270E08DE290E0EE
:1027E0000E944A088091190190911A018D9709F46D
:1027F00013CFE2CF80E10E94EE098823A9F0E12CFB
:1028000000E02BEC39E049EC59E06AE270E081E449
:1028100090E00E944A088091190190911A01813438
:10282000910509F4F9CEC8CF84E00E94EE0988230F
:10283000A9F0E12C00E027E839E045E859E06AE238
:1028400070E085E590E00E944A088091190190911E
:102850001A018535910509F4DFCEAECF88E00E94DC
:10286000EE09882309F4E2CEE12C00E027E839E004
:1028700045E859E06AE270E089E690E00E944A0883
:102880008091190190911A018936910509F4C4CEFD
:1028900093CF10921801109217018FEF9FEF909332
:1028A0001401809313019093160180931501E1CEDA
:1028B00010921201109211018FEF9FEF90930E0171
:1028C00080930D019093100180930F01A6CC80910D
:1028D0002001882379F10CE711E0F6E8EF2EF1E012
:1028E000FF2EE016F106B1F00E94F01566E070E0F0
:1028F0000E94791620911E0130911F012817390777
:1029000099F3F801819391938F0190931F01809324
:102910001E01E7CF109220010E947906A5019401C3
:102920000E94481630937B0120937A01109279011E
:1029300010927801E12C00E027E93AE047EB5AE0F9
:102940006EE170E08EE190E00E944A0823E53AE0F3
:1029500043E75AE06EE170E082E390E00E944A08AB
:102960002FE03AE04FE25AE064E170E088E290E064
:102970000E944A082BEC39E04BEE59E068E270E027
:1029800088E290E00E944A0827E839E047EA59E0E7
:102990006EE170E086E490E00E944A0827E839E0A2
:1029A00043E659E06EE170E08AE590E00E944A0853
:1029B0000E947906A50194010E94481680917A012F
:1029C00090917B018901081B190B0530110508F452
:1029D0006AC080E20E94EE09F12CE12C81112BC02B
:1029E00080E40E94EE09EE24E394F12C811123C0CF
:1029F00080E80E94EE0962E0E62EF12C81111BC0F6
:102A000080E10E94EE0953E0E52EF12C811113C004
:102A100088E00E94EE0944E0E42EF12C81110BC005
:102A200084E00E94EE09E6E0EE2EF12C882319F0F6
:102A300035E0E32EF12CC7010E94FC09809178015A
:102A400090917901FC01EE0FFF1FE458FE4F2081A9
:102A50003181E216F306F9F4209186013091870165
:102A6000265F3F4F30938701209386010196909314
:102A70007901809378010F30110548F48091780135
:102A800090917901059718F4DD2009F4C6CB81E017
:102A9000809320012BCDDD24D394F6E0EF16F104D2
:102AA00051F7D12CE8CF000F111FF801E458FE4F69
:102AB000808191810E94FC09B0CB88E290E09093E4
:102AC0008F0180938E0185E090E090939101809337
:102AD000900184E397E00E94D309EBE2F2E091E8F1
:102AE000915031F08191DF01119780688C93F8CF7C
:102AF0000AE010E010938F0100938E018EE190E0C8
:102B0000909391018093900189E297E00E94D3090C
:102B100010938F0100938E0182E390E090939101D6
:102B20008093900184E197E00E94D30984E00E94A1
:102B3000EE09882309F471CBEE24E394F12CF09292
:102B40009301E092920169CB8F929F92AF92BF92D4
:102B5000CF92DF92EF92FF92CF93DF93EC016881E7
:102B600079818A819B81611571058105910521F427
:102B700064E279ED8BE597E02DE133EF41E050E041
:102B80000E94161649015A019B01AC01A7EAB1E463
:102B90000E9435166B017C01ACEEB4EFA5019401E7
:102BA0000E944316DC01CB018C0D9D1DAE1DBF1D87
:102BB000B7FF03C00197A109B04888839983AA830E
:102BC000BB839F77DF91CF91FF90EF90DF90CF9005
:102BD000BF90AF909F908F9008950E94A415089584
:102BE00083E291E00E94A4150895B0E0A0E08093F4
:102BF000230190932401A0932501B0932601089509
:102C0000F999FECF92BD81BDF89A992780B50895B4
:102C1000262FF999FECF1FBA92BD81BD20BD0FB6F8
:102C2000F894FA9AF99A0FBE01960895052E97FB2B
:102C30001EF400940E942D1657FD07D00E944816DE
:102C400007FC03D04EF40C942D165095409530950A
:102C500021953F4F4F4F5F4F089590958095709508
:102C600061957F4F8F4F9F4F08950E946A16A59FD1
:102C7000900DB49F900DA49F800D911D1124089577
:102C8000B7FF0C9435160E943516821B930B0895DE
:102C9000A1E21A2EAA1BBB1BFD010DC0AA1FBB1F60
:102CA000EE1FFF1FA217B307E407F50720F0A21BD2
:102CB000B30BE40BF50B661F771F881F991F1A943F
:102CC00069F760957095809590959B01AC01BD0169
:102CD000CF010895A29FB001B39FC001A39F700DC3
:102CE000811D1124911DB29F700D811D1124911D14
:102CF000089597FB072E16F4009407D077FD09D0AE
:102D00000E948D1607FC05D03EF4909581959F4F4B
:102D10000895709561957F4F0895AA1BBB1B51E1E3
:102D200007C0AA1FBB1FA617B70710F0A61BB70B3B
:102D3000881F991F5A95A9F780959095BC01CD01E0
:102D40000895EE0FFF1F0590F491E02D0994AEE079
:102D5000B0E0EDEAF6E10C9463190D891E898F89C4
:102D6000988D26E02C831A83098397FF02C080E0A8
:102D700090E801979E838D83AE01455E5F4F698D1C
:102D80007A8DCE0101960E94D7164D815E8157FD46
:102D90000AC02F813885421753070CF49A01020F9D
:102DA000131FF80110822E96E4E00C947F19ABE01B
:102DB000B0E0EDEDF6E10C9455197C013B018A0180
:102DC000FC0117821682838181FFC8C1CE01019662
:102DD0005C01F7019381F30193FD859193FF81914C
:102DE0003F01882309F453C1853239F493FD85915D
:102DF00093FF81913F01853229F4B70190E00E9451
:102E0000C718E7CF912C212C312CFFE1F31538F0B6
:102E10008B3211F190F4803209F1833229F137FCC1
:102E20003CC020ED280F2A3050F536FE20C08AE045
:102E3000989E200D1124922E06C08D3291F0803381
:102E400071F7689430F8F30193FD859193FF8191B8
:102E50003F018111DACF21C0689431F8689432F8CB
:102E6000F2CF689433F8EFCF689434F8ECCFEAE00F
:102E70002E9E200D1124222E689435F8E4CF8E3238
:102E800029F436FC04C1689436F8DDCF8C3619F489
:102E9000689437F8D8CF8836B1F2982F9F7D955433
:102EA0009330E0F08336A1F18337C1F1833509F027
:102EB00063C02801F2E04F0E511CF801C080D180A0
:102EC000692D70E036FC02C06FEF7FEFC6010E94F3
:102ED000B1184C01689437F882010AC00C5F1F4F8B
:102EE000FFE3F98388248394912C6501E89437F8F3
:102EF00033FE2DC0522C8114910471F5552009F434
:102F000068CFB70180E290E00E94C7185A94F6CFCC
:102F1000F801808189830E5F1F4FE4CF2801F2E022
:102F20004F0E511CF801C080D180692D70E036FC35
:102F300002C06FEF7FEFC6010E94BC184C018201F6
:102F4000D5CFB70180E290E00E94C7182A942814D8
:102F5000190409F0B0F7CECFF60137FC859137FEA2
:102F600081916F01B70190E00E94C71851105A94E7
:102F7000F1E08F1A9108BFCF843619F0893609F035
:102F800077C0F80137FE6BC06081718182819381C7
:102F90000C5F1F4FF32DFF763F2E97FF09C09095D2
:102FA0008095709561957F4F8F4F9F4F689437F84C
:102FB0002AE030E0A5010E94F718C82ECA188C2C10
:102FC000432C36FE0CC0E89440F8C91440F434FE9B
:102FD00005C032FC03C0F32DFE7E4F2E892C44FE2B
:102FE00095C0FE01EC0DF11D8081803309F087C092
:102FF000242D297E422E842D8870582E43FC95C0A6
:1030000040FE8FC09C2C821418F42C0C922C981823
:1030100044FE91C0B70180E390E00E94C71842FED1
:1030200009C088E790E041FE02C088E590E0B70162
:103030000E94C718C91408F48AC0CA94D12C9FEF03
:10304000C91AD90ACA0CDB1CF60182916F01B701BB
:1030500090E00E94C718AC14BD04B1F74FCF608157
:103060007181072E000C880B990B0E5F1F4F92CFBA
:10307000D32CE894D4F82AE030E0853739F1232DB9
:10308000297FD22E8F3601F148F48835A9F0F70157
:10309000868197812B96E2E10C947119803749F073
:1030A0008837A9F7D4FE02C06894D2F820E130E056
:1030B0000DC06894D4F8F6CF34FE03C0822F86602A
:1030C000D82E20E132E002C028E030E0F801D7FE3F
:1030D0000FC060817181828193810C5F1F4FA501B8
:1030E0000E94F718C82ECA183D2CE89437F867CF0D
:1030F0006081718190E080E00E5F1F4FF0CF42FC55
:1031000002C0839478CF8394839475CF842D86787E
:1031100009F471CFF6CFB70180E290E00E94C718A2
:1031200083948214C0F3512C73CF522C58188214FC
:1031300008F46ECFF8CF842D867809F47BCF8BE22C
:1031400041FE80E247FC8DE2B70190E071CFB7010C
:1031500080E390E00E94C7189A946CCF8FEF9FEFA6
:1031600099CFFC010590615070400110D8F780950F
:1031700090958E0F9F1F0895FC0161507040019043
:103180000110D8F7809590958E0F9F1F08950F938B
:103190001F93CF93DF93182F092FEB018B8181FDB4
:1031A00009C01FEF0FEF812F902FDF91CF911F915B
:1031B0000F91089582FF14C02E813F818C819D81E3
:1031C000281739073CF4E881F981CF0101969983EA
:1031D000888310838E819F8101969F838E83E3CFA6
:1031E000E885F985812F0995892BA1F3DACFFA01BA
:1031F000AA27283051F1203181F1E8946F936E7F36
:103200006E5F7F4F8F4F9F4FAF4FB1E03ED0B4E026
:103210003CD0670F781F891F9A1FA11D680F791F67
:103220008A1F911DA11D6A0F711D811D911DA11D78
:1032300020D009F468943F912AE0269F1124301988
:10324000305D3193DEF6CF010895462F4770405D23
:103250004193B3E00FD0C9F7F6CF462F4F70405DD2
:103260004A3318F0495D31FD4052419302D0A9F72D
:10327000EACFB4E0A6959795879577956795BA9527
:10328000C9F700976105710508959B01AC010A2EED
:1032900006945795479537952795BA95C9F7620FC4
:1032A000731F841F951FA01D08952F923F924F9268
:1032B0005F926F927F928F929F92AF92BF92CF92C6
:1032C000DF92EF92FF920F931F93CF93DF93CDB7CF
:1032D000DEB7CA1BDB0B0FB6F894DEBF0FBECDBF47
:1032E00009942A88398848885F846E847D848C8418
:1032F0009B84AA84B984C884DF80EE80FD800C8121
:103300001B81AA81B981CE0FD11D0FB6F894DEBF03
:0C3310000FBECDBFED010895F894FFCF73
:10331C00FFFFFFFF00E100000000000010FFFFFFB7
:10332C00FF0000FFFFFFFF0000FFFFFFFF01060093
:10333C000101000100000000C180810000000000BC
:10334C000000C9074407EA07DF073008EE070C083E
:10335C00000000005D0917079C0A9B0A3E00200034
:10336C004552524F522053544154450053636F728F
:06337C00653A2025640003
:00000001FF
